:1000000053C06DC067C26BC06AC0C4C168C067C05E
:1000100066C065C009C263C062C061C060C008003C
:100020000000BE922449123EABAAAA2ABECDCCCC77
:100030004C3E00000080BEABAAAAAA3E0000000011
:10004000BF000000803F0000000000084178D3BBE3
:100050004387D1133D190E3CC3BD4282AD2B3E6890
:10006000EC8276BED98FE1A93E4C80EFFFBE01C481
:10007000FF7F3F000000000000000000380000008B
:1000800000003700000000003600020202020202F7
:1000900002020202010204081020200410080102DA
:1000A000000004000000000011241FBECFE5D1E0D5
:1000B000DEBFCDBF10E0A0E6B0E0E2EBFEE002C0A4
:1000C00005900D92A436B107D9F720E0A4E6B0E080
:1000D00001C01D92A039B207E1F75AD2E8C690CF0D
:1000E000EEE9F0E08491E4E9F0E09491EAE8F0E0F0
:1000F000E491EE2319F1882399F0823071F028F40D
:10010000813071F48AB58F770AC0833011F0843062
:1001100039F48CB58F7D8CBD03C08AB58F7D8ABDC7
:10012000F0E0EE0FFF1FEC57FF4FA591B491EC915B
:10013000E92381E090E021F480E0089580E090E000
:100140000895CF93DF9390E0FC01EC56FF4F24918C
:10015000FC01E657FF4F8491882361F190E0880FFE
:10016000991FFC01E258FF4FC591D491FC01E8585A
:10017000FF4FA591B491611109C09FB7F894888190
:10018000209582238883EC912E230BC0623061F48A
:100190009FB7F8943881822F809583238883EC91D0
:1001A0002E2B2C939FBF06C08FB7F894E8812E2B7F
:1001B00028838FBFDF91CF9108953FB7F894809146
:1001C0006E0090916F00A0917000B091710022B705
:1001D00008B601FE05C02F3F19F00196A11DB11D03
:1001E0003FBFBA2FA92F982F8827820F911DA11DDD
:1001F000B11DBC01CD0143E0660F771F881F991F19
:100200004A95D1F708952FB7F89480916A0090919C
:100210006B00A0916C00B0916D002FBFBC01CD01AF
:1002200023E096958795779567952A95D1F7089558
:100230004F925F926F927F928F929F92AF92BF92F6
:10024000CF92DF92EF92FF92CF93DF93EC016A019E
:100250007B0168817981072E000C880B990B90D463
:100260002B013C018A809B80AC80BD80A701960158
:1002700083D3A501940134D5181634F4A501940153
:10028000C701B6017AD30FC0A3019201C701B6011D
:1002900073D3A501940124D51816DCF4A5019401AB
:1002A000C701B60169D36B017C0120E030E0A901F0
:1002B00017D520E030E040E05FE387FD04C0C701D0
:1002C000B6015BD303C0C701B60156D326D47983E8
:1002D000688388819981DF91CF91FF90EF90DF90C3
:1002E000CF90BF90AF909F908F907F906F905F90D6
:1002F0004F9008958F929F92AF92BF92CF92DF92CC
:10030000EF92FF9281E087B9369A3699FECF64B1B9
:1003100085B170E0782B072E000C880B990B30D438
:100320006B017C0120E030E44EE455E422D54B0122
:100330005C01A701960160E070EC8FE794E41CD3A8
:100340009B01AC01C501B40180D320E030E44CE155
:1003500056E47BD3CED420E030E641E555E475D3B6
:100360002FE03FEC4BE55BE308D39B01AC0160E081
:1003700070E080E89FE369D323E333E948E853E47E
:10038000FBD2FF90EF90DF90CF90BF90AF909F9007
:100390008F9008951F920F920FB60F9211242F93F2
:1003A0003F938F939F93AF93BF9380916A009091F7
:1003B0006B00A0916C00B0916D003091690026E057
:1003C000230F2D3720F40296A11DB11D05C029E889
:1003D000230F0396A11DB11D2093690080936A002D
:1003E00090936B00A0936C00B0936D0080916E00B1
:1003F00090916F00A0917000B09171000196A11DC5
:10040000B11D80936E0090936F00A0937000B09325
:100410007100BF91AF919F918F913F912F910F905C
:100420000FBE0F901F9018951F920F920FB60F924C
:1004300011242F934F935F936F937F938F939F9389
:10044000AF93BF9340916000509161006091620052
:10045000709163008091650090916600A0916700A3
:10046000B0916800481759076A077B0730F4841B6E
:10047000950B90938B0080938A002FB7F89480910E
:100480006A0090916B00A0916C00B0916D002FBF3D
:1004900023E0B695A795979587952A95D1F78093F0
:1004A0008C0090938D00A0938E00B0938F0089B73D
:1004B0008F7E89BF10926400BF91AF919F918F9101
:1004C0007F916F915F914F912F910F900FBE0F9081
:1004D0001F9018951F920F920FB60F9211242F9311
:1004E0003F934F935F936F937F938F939F93AF93BC
:1004F000BF93EF93FF93F4DD892BE9F080916400C3
:10050000811113C05ADEDC01CB0133E0B695A7950B
:10051000979587953A95D1F7809360009093610005
:10052000A0936200B093630022C089B78F7E89BF19
:10053000109264001CC041DEDC01CB0123E0B695C3
:10054000A795979587952A95D1F780936500909305
:100550006600A0936700B093680082B790E044966D
:1005600089BD89B7806189BF81E080936400FF9174
:10057000EF91BF91AF919F918F917F916F915F911B
:100580004F913F912F910F900FBE0F901F90189594
:1005900078948AB582608ABD8AB581608ABD83B746
:1005A000826083BF83B7816083BF89B7826089BF60
:1005B00080B7826080BF80B7816080BF329A319AF5
:1005C0003098379A8CB580648CBD60E080E0B9DDEE
:1005D00061E081E0B6DD60E087E0B3DD8BB780628B
:1005E0008BBFA89AF89483B78B7F83BF83B7826051
:1005F00083BF83B78E7F83BF7894F89480B78F775B
:1006000080BF80B7806480BF80B7877F80BF80B79E
:100610008B7F80BF80B7826080BF80B7816080BFE2
:1006200080B78F7E80BF80B7806280BF8CB58F7EA1
:100630008CBD8CB58F7D8CBD1EBC78948CEC9CECF5
:10064000ACECBDE38093780090937900A0937A009E
:10065000B0937B0010927C0010927D0010927E007F
:1006600010927F0010927300109272008DEC9CEC3F
:10067000ACE4BFE38093740090937500A093760080
:10068000B0937700109281001092800080E090E09B
:10069000A0E0B1E48093820090938300A093840053
:1006A000B0938500C0E0D0E008E517E08FB7F8947C
:1006B00080908C0090908D00A0908E00B0908F0064
:1006C000C0908A00D0908B008FBF9DDD681979099A
:1006D0008A099B0953D220E030E04AE754E4B5D1BF
:1006E0002DEC3CEC4CE45DE3FBD21816C4F4FFB6F1
:1006F000F89489DD60938C0070938D0080938E0058
:1007000090938F00FFBEECDC019729F410938B00CF
:1007100000938A0004C010928B0010928A0073DD4F
:100720008090860090908700A0908800B09089000B
:10073000681979098A099B0921D220E030E04AE74B
:1007400054E483D12AE037ED43E25CE3C9D21816C2
:100750000CF00DC158DD6093860070938700809384
:10076000880090938900C6DD9B01AC0160E070E0D9
:1007700086E992E401D127E737E747E051E4F9D26F
:10078000AB01BC0180E890E053DD97FD29C0B2DDEC
:100790009B01AC0160E070E086E992E4EDD027E7D0
:1007A00037E747E051E4E5D2AB01BC0180E890E0D7
:1007B0003FDD80389105BCF49DDD9B01AC0160E01C
:1007C00070E086E992E4D8D027E737E747E051E4C4
:1007D000D0D2AB01BC0180E890E02ADD7C0106C0EC
:1007E000E12CF12C03C08FE7E82EF12C84EFC81622
:1007F00081E0D8065CF1B60160567440072E000C0B
:10080000880B990BBDD120E030E04EEF52E4B1D21D
:1008100020E030E04EE354E418D14B015C0120E0CD
:1008200030E0A9010ED187FD11C0B701FF0C880B84
:10083000990BA6D16B017C019B01AC01B401C501F0
:100840004FD218163CF06401750104C0C12CD12CA4
:10085000E12CF12C8090780090907900A0907A00A3
:10086000B0907B009601A701C501B40182D26B0153
:100870007C0120E030E040E85FE3C501B4017CD0BA
:1008800020917C0030917D0040917E0050917F004E
:1008900070D29B01AC01C701B6016ED0AB01BC01A7
:1008A00040937C0050937D0060937E0070937F00A6
:1008B00082E790E0BDDC682F70E080E090E05ED1E0
:1008C00020E030E04EEF52E4C0D06B017C012FED10
:1008D0003FE44DE05DE34DD22BE231EC42EE5AE3D2
:1008E0004CD04B015C012FE335E34EE55EE3C701DD
:1008F000B6013FD2A70196013CD29B01AC01C501D4
:10090000B4013BD04B015C0129E739EE46EE5EE3D2
:10091000C701B6012ED2A70196012BD2A7019601DD
:1009200028D29B01AC01C501B40127D04B015C0169
:1009300022E630E148E95EE3C701B6011AD2A70119
:10094000960117D2A701960114D2A701960111D2E0
:100950009B01AC01C501B40110D020E030E046E6B7
:1009600053E407D2DFD0673E08F066EE6EBD2097F5
:1009700009F49CCE45DB9ACE5058BB27AA270ED04F
:1009800075C166D130F06BD120F031F49F3F11F486
:100990001EF45BC10EF4E095E7FB51C1E92F77D15E
:1009A00080F3BA17620773078407950718F071F48C
:1009B0009EF58FC10EF4E0950B2EBA2FA02D0B01E2
:1009C000B90190010C01CA01A0011124FF27591B94
:1009D00099F0593F50F4503E68F11A16F040A22F9A
:1009E000232F342F4427585FF3CF4695379527950B
:1009F000A795F0405395C9F77EF41F16BA0B620B0A
:100A0000730B840BBAF09150A1F0FF0FBB1F661F50
:100A1000771F881FC2F70EC0BA0F621F731F841F93
:100A200048F4879577956795B795F7959E3F08F0B9
:100A3000B3CF9395880F08F09927EE0F9795879578
:100A40000895D9D008F481E008950CD00FC107D1E2
:100A500040F0FED030F021F45F3F19F0F0C05111AA
:100A600039C1F3C014D198F39923C9F35523B1F3D5
:100A7000951B550BBB27AA2762177307840738F00D
:100A80009F5F5F4F220F331F441FAA1FA9F333D06C
:100A90000E2E3AF0E0E830D091505040E695001C20
:100AA000CAF729D0FE2F27D0660F771F881FBB1FDC
:100AB000261737074807AB07B0E809F0BB0B802DB6
:100AC000BF01FF2793585F4F2AF09E3F510568F002
:100AD000B6C000C15F3FECF3983EDCF38695779596
:100AE0006795B795F7959F5FC9F7880F911D969504
:100AF000879597F90895E1E0660F771F881FBB1F60
:100B0000621773078407BA0720F0621B730B840B0C
:100B1000BA0BEE1F88F7E095089504D06894B111E0
:100B2000D9C00895BCD088F09F5790F0B92F99276D
:100B3000B751A0F0D1F0660F771F881F991F1AF0E8
:100B4000BA95C9F712C0B13081F0C3D0B1E00895B1
:100B5000C0C0672F782F8827B85F39F0B93FCCF332
:100B6000869577956795B395D9F73EF490958095DE
:100B7000709561957F4F8F4F9F4F0895E89409C0FE
:100B800097FB3EF490958095709561957F4F8F4FC0
:100B90009F4F9923A9F0F92F96E9BB279395F695D6
:100BA000879577956795B795F111F8CFFAF4BB0F54
:100BB00011F460FF1BC06F5F7F4F8F4F9F4F16C0B8
:100BC000882311F096E911C0772321F09EE8872F42
:100BD000762F05C0662371F096E8862F70E060E0FE
:100BE0002AF09A95660F771F881FDAF7880F969577
:100BF000879597F90895990F0008550FAA0BE0E81B
:100C0000FEEF16161706E807F907C0F012161306CE
:100C1000E407F50798F0621B730B840B950B39F40E
:100C20000A2661F0232B242B252B21F408950A2674
:100C300009F4A140A6958FEF811D811D089597F9B4
:100C40009F6780E870E060E008959FEF80EC089572
:100C500000240A941616170618060906089500249B
:100C60000A9412161306140605060895092E039415
:100C7000000C11F4882352F0BB0F40F4BF2B11F489
:100C800060FF04C06F5F7F4F8F4F9F4F089557FDE8
:100C90009058440F551F59F05F3F71F04795880FEA
:100CA00097FB991F61F09F3F79F087950895121681
:100CB00013061406551FF2CF4695F1DF08C016162D
:100CC00017061806991FF1CF8695710561050894DE
:100CD0000895E894BB2766277727CB0197F90895F5
:100CE0008ADF08F48FEF08950EF0AEC0AECF68949F
:100CF000A6CFD5DFC8F39923D1F3C6F3DF93CF9303
:100D00001F930F93FF92C92FDD2788232AF0219785
:100D1000660F771F881FDAF720E030E040E85FEBCE
:100D20009FE3883920F0803E30F021968F7725DED2
:100D3000EEE1F0E003C021DEEBE4F0E093D08B01C4
:100D4000BE01EC01FB2E6F5771097595771F880B5B
:100D5000990B16DF28E132E741E35FE315D0AF2DB1
:100D60009801AE01FF900F911F91CF91DF9116DE98
:100D70007DCF0AD07BCF6CDF28F071DF18F0952390
:100D800009F05DCF62CFA6CF82DFA8F39923D9F314
:100D90005523C9F3950F50E0551FAA27EE27FF27CB
:100DA000BB2700240894679520F4E20FF31FB41FBB
:100DB0000A1E220F331F441FAA1F6695A9F77795B5
:100DC00030F4F30FB41F0A1E121E08F46395330F9C
:100DD000441FAA1F221F769599F7879520F4B40F18
:100DE0000A1E121E631F440FAA1F221F331F86955F
:100DF000A9F7862F712D602D11249F5750408AF03E
:100E0000E1F088234AF0EE0FFF1FBB1F661F771F1C
:100E1000881F91505040A9F79E3F510570F00FCFA9
:100E200059CF5F3FECF3983EDCF386957795679555
:100E3000B795F795E7959F5FC1F7FE2B880F911D3A
:100E40009695879597F908959F3F31F0915020F43A
:100E5000879577956795B795880F911D9695879596
:100E600097F90895DF93CF931F930F93FF92EF921B
:100E7000DF927B018C01689405C0DA2EEF0184DFDC
:100E8000FE01E894A5912591359145915591AEF3D8
:100E9000EF0184DDFE019701A801DA9479F7DF9074
:100EA000EF90FF900F911F91CF91DF910895F894EB
:020EB000FFCF72
:040EB200FFFF00003E
:00000001FF
